{
  "_format": "hh-sol-artifact-1",
  "contractName": "Bridge",
  "sourceName": "contracts/Bridge.sol",
  "abi": [
    {
      "inputs": [],
      "stateMutability": "nonpayable",
      "type": "constructor"
    },
    {
      "anonymous": false,
      "inputs": [
        {
          "indexed": false,
          "internalType": "address",
          "name": "token",
          "type": "address"
        },
        {
          "indexed": false,
          "internalType": "uint256",
          "name": "amount",
          "type": "uint256"
        },
        {
          "indexed": false,
          "internalType": "uint256",
          "name": "time",
          "type": "uint256"
        }
      ],
      "name": "AddedNewToken",
      "type": "event"
    },
    {
      "anonymous": false,
      "inputs": [
        {
          "indexed": false,
          "internalType": "address",
          "name": "token",
          "type": "address"
        },
        {
          "indexed": false,
          "internalType": "uint256",
          "name": "amount",
          "type": "uint256"
        },
        {
          "indexed": false,
          "internalType": "uint256",
          "name": "timestamp",
          "type": "uint256"
        }
      ],
      "name": "AddedTokens",
      "type": "event"
    },
    {
      "anonymous": false,
      "inputs": [
        {
          "indexed": true,
          "internalType": "address",
          "name": "previousOwner",
          "type": "address"
        },
        {
          "indexed": true,
          "internalType": "address",
          "name": "newOwner",
          "type": "address"
        }
      ],
      "name": "OwnershipTransferred",
      "type": "event"
    },
    {
      "anonymous": false,
      "inputs": [
        {
          "indexed": false,
          "internalType": "uint256",
          "name": "time",
          "type": "uint256"
        },
        {
          "indexed": false,
          "internalType": "uint256",
          "name": "chainId",
          "type": "uint256"
        }
      ],
      "name": "Pause",
      "type": "event"
    },
    {
      "anonymous": false,
      "inputs": [
        {
          "indexed": false,
          "internalType": "address",
          "name": "account",
          "type": "address"
        }
      ],
      "name": "Paused",
      "type": "event"
    },
    {
      "anonymous": false,
      "inputs": [
        {
          "indexed": true,
          "internalType": "bytes32",
          "name": "role",
          "type": "bytes32"
        },
        {
          "indexed": true,
          "internalType": "bytes32",
          "name": "previousAdminRole",
          "type": "bytes32"
        },
        {
          "indexed": true,
          "internalType": "bytes32",
          "name": "newAdminRole",
          "type": "bytes32"
        }
      ],
      "name": "RoleAdminChanged",
      "type": "event"
    },
    {
      "anonymous": false,
      "inputs": [
        {
          "indexed": true,
          "internalType": "bytes32",
          "name": "role",
          "type": "bytes32"
        },
        {
          "indexed": true,
          "internalType": "address",
          "name": "account",
          "type": "address"
        },
        {
          "indexed": true,
          "internalType": "address",
          "name": "sender",
          "type": "address"
        }
      ],
      "name": "RoleGranted",
      "type": "event"
    },
    {
      "anonymous": false,
      "inputs": [
        {
          "indexed": true,
          "internalType": "bytes32",
          "name": "role",
          "type": "bytes32"
        },
        {
          "indexed": true,
          "internalType": "address",
          "name": "account",
          "type": "address"
        },
        {
          "indexed": true,
          "internalType": "address",
          "name": "sender",
          "type": "address"
        }
      ],
      "name": "RoleRevoked",
      "type": "event"
    },
    {
      "anonymous": false,
      "inputs": [
        {
          "indexed": false,
          "internalType": "address",
          "name": "account",
          "type": "address"
        }
      ],
      "name": "Unpaused",
      "type": "event"
    },
    {
      "anonymous": false,
      "inputs": [
        {
          "indexed": false,
          "internalType": "address",
          "name": "token",
          "type": "address"
        },
        {
          "indexed": false,
          "internalType": "address",
          "name": "user",
          "type": "address"
        },
        {
          "indexed": false,
          "internalType": "uint256",
          "name": "amount",
          "type": "uint256"
        },
        {
          "indexed": false,
          "internalType": "uint256",
          "name": "timestamp",
          "type": "uint256"
        },
        {
          "indexed": false,
          "internalType": "uint256",
          "name": "chainFrom",
          "type": "uint256"
        },
        {
          "indexed": false,
          "internalType": "uint256",
          "name": "chainTo",
          "type": "uint256"
        }
      ],
      "name": "tranferToAnotherChain",
      "type": "event"
    },
    {
      "anonymous": false,
      "inputs": [
        {
          "indexed": false,
          "internalType": "address",
          "name": "token",
          "type": "address"
        },
        {
          "indexed": false,
          "internalType": "address",
          "name": "user",
          "type": "address"
        },
        {
          "indexed": false,
          "internalType": "uint256",
          "name": "amount",
          "type": "uint256"
        },
        {
          "indexed": false,
          "internalType": "uint256",
          "name": "time",
          "type": "uint256"
        },
        {
          "indexed": false,
          "internalType": "uint256",
          "name": "chainFrom",
          "type": "uint256"
        },
        {
          "indexed": false,
          "internalType": "uint256",
          "name": "chainTo",
          "type": "uint256"
        }
      ],
      "name": "transferTothatChain",
      "type": "event"
    },
    {
      "inputs": [],
      "name": "ADMIN_ROLE",
      "outputs": [
        {
          "internalType": "bytes32",
          "name": "",
          "type": "bytes32"
        }
      ],
      "stateMutability": "view",
      "type": "function"
    },
    {
      "inputs": [],
      "name": "BRIDGE_ROLE",
      "outputs": [
        {
          "internalType": "bytes32",
          "name": "",
          "type": "bytes32"
        }
      ],
      "stateMutability": "view",
      "type": "function"
    },
    {
      "inputs": [],
      "name": "DEFAULT_ADMIN_ROLE",
      "outputs": [
        {
          "internalType": "bytes32",
          "name": "",
          "type": "bytes32"
        }
      ],
      "stateMutability": "view",
      "type": "function"
    },
    {
      "inputs": [
        {
          "internalType": "address",
          "name": "_token",
          "type": "address"
        },
        {
          "internalType": "uint256",
          "name": "_amount",
          "type": "uint256"
        }
      ],
      "name": "addNewToken",
      "outputs": [],
      "stateMutability": "nonpayable",
      "type": "function"
    },
    {
      "inputs": [
        {
          "internalType": "address",
          "name": "_token",
          "type": "address"
        },
        {
          "internalType": "uint256",
          "name": "amount",
          "type": "uint256"
        }
      ],
      "name": "addTokens",
      "outputs": [],
      "stateMutability": "nonpayable",
      "type": "function"
    },
    {
      "inputs": [
        {
          "internalType": "address",
          "name": "",
          "type": "address"
        }
      ],
      "name": "balanceOfToken",
      "outputs": [
        {
          "internalType": "uint256",
          "name": "balance",
          "type": "uint256"
        },
        {
          "internalType": "address",
          "name": "Token",
          "type": "address"
        }
      ],
      "stateMutability": "view",
      "type": "function"
    },
    {
      "inputs": [],
      "name": "chainId",
      "outputs": [
        {
          "internalType": "uint256",
          "name": "",
          "type": "uint256"
        }
      ],
      "stateMutability": "view",
      "type": "function"
    },
    {
      "inputs": [
        {
          "internalType": "bytes32",
          "name": "role",
          "type": "bytes32"
        }
      ],
      "name": "getRoleAdmin",
      "outputs": [
        {
          "internalType": "bytes32",
          "name": "",
          "type": "bytes32"
        }
      ],
      "stateMutability": "view",
      "type": "function"
    },
    {
      "inputs": [
        {
          "internalType": "bytes32",
          "name": "role",
          "type": "bytes32"
        },
        {
          "internalType": "address",
          "name": "account",
          "type": "address"
        }
      ],
      "name": "grantRole",
      "outputs": [],
      "stateMutability": "nonpayable",
      "type": "function"
    },
    {
      "inputs": [
        {
          "internalType": "bytes32",
          "name": "role",
          "type": "bytes32"
        },
        {
          "internalType": "address",
          "name": "account",
          "type": "address"
        }
      ],
      "name": "hasRole",
      "outputs": [
        {
          "internalType": "bool",
          "name": "",
          "type": "bool"
        }
      ],
      "stateMutability": "view",
      "type": "function"
    },
    {
      "inputs": [],
      "name": "owner",
      "outputs": [
        {
          "internalType": "address",
          "name": "",
          "type": "address"
        }
      ],
      "stateMutability": "view",
      "type": "function"
    },
    {
      "inputs": [],
      "name": "pause",
      "outputs": [],
      "stateMutability": "nonpayable",
      "type": "function"
    },
    {
      "inputs": [],
      "name": "paused",
      "outputs": [
        {
          "internalType": "bool",
          "name": "",
          "type": "bool"
        }
      ],
      "stateMutability": "view",
      "type": "function"
    },
    {
      "inputs": [],
      "name": "renounceOwnership",
      "outputs": [],
      "stateMutability": "nonpayable",
      "type": "function"
    },
    {
      "inputs": [
        {
          "internalType": "bytes32",
          "name": "role",
          "type": "bytes32"
        },
        {
          "internalType": "address",
          "name": "account",
          "type": "address"
        }
      ],
      "name": "renounceRole",
      "outputs": [],
      "stateMutability": "nonpayable",
      "type": "function"
    },
    {
      "inputs": [
        {
          "internalType": "bytes32",
          "name": "role",
          "type": "bytes32"
        },
        {
          "internalType": "address",
          "name": "account",
          "type": "address"
        }
      ],
      "name": "revokeRole",
      "outputs": [],
      "stateMutability": "nonpayable",
      "type": "function"
    },
    {
      "inputs": [
        {
          "internalType": "address",
          "name": "_token",
          "type": "address"
        },
        {
          "internalType": "uint256",
          "name": "_amount",
          "type": "uint256"
        },
        {
          "internalType": "uint256",
          "name": "chainFrom",
          "type": "uint256"
        },
        {
          "internalType": "address",
          "name": "to",
          "type": "address"
        }
      ],
      "name": "sendFromTo",
      "outputs": [],
      "stateMutability": "nonpayable",
      "type": "function"
    },
    {
      "inputs": [
        {
          "internalType": "address",
          "name": "_token",
          "type": "address"
        },
        {
          "internalType": "uint256",
          "name": "_amount",
          "type": "uint256"
        },
        {
          "internalType": "uint256",
          "name": "chainTo",
          "type": "uint256"
        }
      ],
      "name": "sendToFrom",
      "outputs": [
        {
          "internalType": "bool",
          "name": "",
          "type": "bool"
        }
      ],
      "stateMutability": "nonpayable",
      "type": "function"
    },
    {
      "inputs": [
        {
          "internalType": "bytes4",
          "name": "interfaceId",
          "type": "bytes4"
        }
      ],
      "name": "supportsInterface",
      "outputs": [
        {
          "internalType": "bool",
          "name": "",
          "type": "bool"
        }
      ],
      "stateMutability": "view",
      "type": "function"
    },
    {
      "inputs": [
        {
          "internalType": "address",
          "name": "newOwner",
          "type": "address"
        }
      ],
      "name": "transferOwnership",
      "outputs": [],
      "stateMutability": "nonpayable",
      "type": "function"
    },
    {
      "inputs": [],
      "name": "unpause",
      "outputs": [],
      "stateMutability": "nonpayable",
      "type": "function"
    },
    {
      "inputs": [
        {
          "internalType": "address",
          "name": "token",
          "type": "address"
        },
        {
          "internalType": "uint256",
          "name": "amount",
          "type": "uint256"
        }
      ],
      "name": "withdraw",
      "outputs": [],
      "stateMutability": "nonpayable",
      "type": "function"
    }
  ],
  "bytecode": "0x60806040523480156200001157600080fd5b506200003262000026620000e460201b60201c565b620000ec60201b60201c565b6000600160146101000a81548160ff021916908315150217905550466002819055506200006533620000ec60201b60201c565b620000977f52ba824bfabc2bcfcdf7f0edbb486ebb05e1836c90e78047efeb949990f72e5f33620001b260201b60201c565b620000ac6000801b33620001b260201b60201c565b620000de7fa49807205ce4d355092ef5a8a18f56e8913cf4a201fbe287825b095693c2177533620001b260201b60201c565b6200030d565b600033905090565b6000600160009054906101000a900473ffffffffffffffffffffffffffffffffffffffff16905081600160006101000a81548173ffffffffffffffffffffffffffffffffffffffff021916908373ffffffffffffffffffffffffffffffffffffffff1602179055508173ffffffffffffffffffffffffffffffffffffffff168173ffffffffffffffffffffffffffffffffffffffff167f8be0079c531659141344cd1fd0a4f28419497f9722a3daafe3b4186f6b6457e060405160405180910390a35050565b620001c48282620002a360201b60201c565b6200029f57600160008084815260200190815260200160002060000160008373ffffffffffffffffffffffffffffffffffffffff1673ffffffffffffffffffffffffffffffffffffffff16815260200190815260200160002060006101000a81548160ff02191690831515021790555062000244620000e460201b60201c565b73ffffffffffffffffffffffffffffffffffffffff168173ffffffffffffffffffffffffffffffffffffffff16837f2f8788117e7eff1d82e926ec794901d17c78024a50270940304540a733656f0d60405160405180910390a45b5050565b600080600084815260200190815260200160002060000160008373ffffffffffffffffffffffffffffffffffffffff1673ffffffffffffffffffffffffffffffffffffffff16815260200190815260200160002060009054906101000a900460ff16905092915050565b61219e806200031d6000396000f3fe608060405234801561001057600080fd5b50600436106101425760003560e01c80638456cb59116100b8578063b5bfddea1161007c578063b5bfddea1461032b578063b99152d014610349578063c42c7b3d1461037a578063d547741f14610396578063f2fde38b146103b2578063f3fef3a3146103ce57610142565b80638456cb59146102975780638da5cb5b146102a157806391d14854146102bf5780639a8a0592146102ef578063a217fddf1461030d57610142565b80633f43b51c1161010a5780633f43b51c146101fb5780633f4ba83a1461022b5780635c975abb146102355780636039fbdb14610253578063715018a61461026f57806375b238fc1461027957610142565b806301ffc9a71461014757806308cca7ea14610177578063248a9ca3146101935780632f2ff15d146101c357806336568abe146101df575b600080fd5b610161600480360381019061015c91906115e3565b6103ea565b60405161016e919061162b565b60405180910390f35b610191600480360381019061018c91906116da565b610464565b005b6101ad60048036038101906101a89190611750565b61055b565b6040516101ba919061178c565b60405180910390f35b6101dd60048036038101906101d891906117a7565b61057a565b005b6101f960048036038101906101f491906117a7565b61059b565b005b610215600480360381019061021091906117e7565b61061e565b604051610222919061162b565b60405180910390f35b6102336107aa565b005b61023d6107e7565b60405161024a919061162b565b60405180910390f35b61026d600480360381019061026891906116da565b6107fe565b005b6102776108f0565b005b610281610904565b60405161028e919061178c565b60405180910390f35b61029f610928565b005b6102a96109a0565b6040516102b69190611849565b60405180910390f35b6102d960048036038101906102d491906117a7565b6109ca565b6040516102e6919061162b565b60405180910390f35b6102f7610a34565b6040516103049190611873565b60405180910390f35b610315610a3a565b604051610322919061178c565b60405180910390f35b610333610a41565b604051610340919061178c565b60405180910390f35b610363600480360381019061035e919061188e565b610a65565b6040516103719291906118bb565b60405180910390f35b610394600480360381019061038f91906118e4565b610aa9565b005b6103b060048036038101906103ab91906117a7565b610c99565b005b6103cc60048036038101906103c7919061188e565b610cba565b005b6103e860048036038101906103e391906116da565b610d3d565b005b60007f7965db0b000000000000000000000000000000000000000000000000000000007bffffffffffffffffffffffffffffffffffffffffffffffffffffffff1916827bffffffffffffffffffffffffffffffffffffffffffffffffffffffff1916148061045d575061045c82610dca565b5b9050919050565b6000600360008473ffffffffffffffffffffffffffffffffffffffff1673ffffffffffffffffffffffffffffffffffffffff1681526020019081526020016000209050828160010160006101000a81548173ffffffffffffffffffffffffffffffffffffffff021916908373ffffffffffffffffffffffffffffffffffffffff1602179055508181600001819055507f79798a5f5c3c7fa54a25ad685d912914645dc006852a962f9102bcde4b7356e38160010160009054906101000a900473ffffffffffffffffffffffffffffffffffffffff1682600001544260405161054e9392919061194b565b60405180910390a1505050565b6000806000838152602001908152602001600020600101549050919050565b6105838261055b565b61058c81610e34565b6105968383610e48565b505050565b6105a3610f28565b73ffffffffffffffffffffffffffffffffffffffff168173ffffffffffffffffffffffffffffffffffffffff1614610610576040517f08c379a000000000000000000000000000000000000000000000000000000000815260040161060790611a05565b60405180910390fd5b61061a8282610f30565b5050565b6000610628611011565b6000600360008673ffffffffffffffffffffffffffffffffffffffff1673ffffffffffffffffffffffffffffffffffffffff1681526020019081526020016000209050838160000154101561067c57600080fd5b8060010160009054906101000a900473ffffffffffffffffffffffffffffffffffffffff1673ffffffffffffffffffffffffffffffffffffffff1663a9059cbb30866040518363ffffffff1660e01b81526004016106db929190611a25565b6020604051808303816000875af11580156106fa573d6000803e3d6000fd5b505050506040513d601f19601f8201168201806040525081019061071e9190611a7a565b5083816000015461072f9190611ad6565b81600001819055507fe6b87b29277d9eebde8c8346a9ec4d8ab31555f7c28ec3cb2a27df262af438ad8160010160009054906101000a900473ffffffffffffffffffffffffffffffffffffffff163386426002548860405161079696959493929190611b2c565b60405180910390a160019150509392505050565b6107d47f52ba824bfabc2bcfcdf7f0edbb486ebb05e1836c90e78047efeb949990f72e5f336109ca565b6107dd57600080fd5b6107e561105b565b565b6000600160149054906101000a900460ff16905090565b6108287fa49807205ce4d355092ef5a8a18f56e8913cf4a201fbe287825b095693c21775336109ca565b61083157600080fd5b6000600360008473ffffffffffffffffffffffffffffffffffffffff1673ffffffffffffffffffffffffffffffffffffffff16815260200190815260200160002090508181600001546108849190611ad6565b81600001819055507f5e418e57faceed9abcebeb838879291d58af370932340175f34c7daaeadb804a8160010160009054906101000a900473ffffffffffffffffffffffffffffffffffffffff1683426040516108e39392919061194b565b60405180910390a1505050565b6108f86110be565b610902600061113c565b565b7fa49807205ce4d355092ef5a8a18f56e8913cf4a201fbe287825b095693c2177581565b6109527f52ba824bfabc2bcfcdf7f0edbb486ebb05e1836c90e78047efeb949990f72e5f336109ca565b61095b57600080fd5b610963611202565b7f5696866c9374d2e3c292741d2edb9364a134bfb1cb1ea8877622b84c43f5806f42600254604051610996929190611b8d565b60405180910390a1565b6000600160009054906101000a900473ffffffffffffffffffffffffffffffffffffffff16905090565b600080600084815260200190815260200160002060000160008373ffffffffffffffffffffffffffffffffffffffff1673ffffffffffffffffffffffffffffffffffffffff16815260200190815260200160002060009054906101000a900460ff16905092915050565b60025481565b6000801b81565b7f52ba824bfabc2bcfcdf7f0edbb486ebb05e1836c90e78047efeb949990f72e5f81565b60036020528060005260406000206000915090508060000154908060010160009054906101000a900473ffffffffffffffffffffffffffffffffffffffff16905082565b610ab1611011565b610adb7f52ba824bfabc2bcfcdf7f0edbb486ebb05e1836c90e78047efeb949990f72e5f336109ca565b610ae457600080fd5b6000600360008673ffffffffffffffffffffffffffffffffffffffff1673ffffffffffffffffffffffffffffffffffffffff16815260200190815260200160002090508381600001541015610b6e576040517f08c379a0000000000000000000000000000000000000000000000000000000008152600401610b6590611c02565b60405180910390fd5b8060010160009054906101000a900473ffffffffffffffffffffffffffffffffffffffff1673ffffffffffffffffffffffffffffffffffffffff166323b872dd3084876040518463ffffffff1660e01b8152600401610bcf93929190611c22565b6020604051808303816000875af1158015610bee573d6000803e3d6000fd5b505050506040513d601f19601f82011682018060405250810190610c129190611a7a565b50838160000154610c239190611c59565b81600001819055507f93691c1191cb38e26814c0e565b2ba47310aefdf9f623021bddd1cc6e62e5b348160010160009054906101000a900473ffffffffffffffffffffffffffffffffffffffff1683864287600254604051610c8a96959493929190611b2c565b60405180910390a15050505050565b610ca28261055b565b610cab81610e34565b610cb58383610f30565b505050565b610cc26110be565b600073ffffffffffffffffffffffffffffffffffffffff168173ffffffffffffffffffffffffffffffffffffffff1603610d31576040517f08c379a0000000000000000000000000000000000000000000000000000000008152600401610d2890611cff565b60405180910390fd5b610d3a8161113c565b50565b610d456110be565b8173ffffffffffffffffffffffffffffffffffffffff166323b872dd3033846040518463ffffffff1660e01b8152600401610d8293929190611c22565b6020604051808303816000875af1158015610da1573d6000803e3d6000fd5b505050506040513d601f19601f82011682018060405250810190610dc59190611a7a565b505050565b60007f01ffc9a7000000000000000000000000000000000000000000000000000000007bffffffffffffffffffffffffffffffffffffffffffffffffffffffff1916827bffffffffffffffffffffffffffffffffffffffffffffffffffffffff1916149050919050565b610e4581610e40610f28565b611264565b50565b610e5282826109ca565b610f2457600160008084815260200190815260200160002060000160008373ffffffffffffffffffffffffffffffffffffffff1673ffffffffffffffffffffffffffffffffffffffff16815260200190815260200160002060006101000a81548160ff021916908315150217905550610ec9610f28565b73ffffffffffffffffffffffffffffffffffffffff168173ffffffffffffffffffffffffffffffffffffffff16837f2f8788117e7eff1d82e926ec794901d17c78024a50270940304540a733656f0d60405160405180910390a45b5050565b600033905090565b610f3a82826109ca565b1561100d57600080600084815260200190815260200160002060000160008373ffffffffffffffffffffffffffffffffffffffff1673ffffffffffffffffffffffffffffffffffffffff16815260200190815260200160002060006101000a81548160ff021916908315150217905550610fb2610f28565b73ffffffffffffffffffffffffffffffffffffffff168173ffffffffffffffffffffffffffffffffffffffff16837ff6391f5c32d9c69d2a47ea670b442974b53935d1edc7fd64eb21e047a839171b60405160405180910390a45b5050565b6110196107e7565b15611059576040517f08c379a000000000000000000000000000000000000000000000000000000000815260040161105090611d6b565b60405180910390fd5b565b611063611301565b6000600160146101000a81548160ff0219169083151502179055507f5db9ee0a495bf2e6ff9c91a7834c1ba4fdd244a5e8aa4e537bd38aeae4b073aa6110a7610f28565b6040516110b49190611849565b60405180910390a1565b6110c6610f28565b73ffffffffffffffffffffffffffffffffffffffff166110e46109a0565b73ffffffffffffffffffffffffffffffffffffffff161461113a576040517f08c379a000000000000000000000000000000000000000000000000000000000815260040161113190611dd7565b60405180910390fd5b565b6000600160009054906101000a900473ffffffffffffffffffffffffffffffffffffffff16905081600160006101000a81548173ffffffffffffffffffffffffffffffffffffffff021916908373ffffffffffffffffffffffffffffffffffffffff1602179055508173ffffffffffffffffffffffffffffffffffffffff168173ffffffffffffffffffffffffffffffffffffffff167f8be0079c531659141344cd1fd0a4f28419497f9722a3daafe3b4186f6b6457e060405160405180910390a35050565b61120a611011565b60018060146101000a81548160ff0219169083151502179055507f62e78cea01bee320cd4e420270b5ea74000d11b0c9f74754ebdbfc544b05a25861124d610f28565b60405161125a9190611849565b60405180910390a1565b61126e82826109ca565b6112fd576112938173ffffffffffffffffffffffffffffffffffffffff16601461134a565b6112a18360001c602061134a565b6040516020016112b2929190611f09565b6040516020818303038152906040526040517f08c379a00000000000000000000000000000000000000000000000000000000081526004016112f49190611f8d565b60405180910390fd5b5050565b6113096107e7565b611348576040517f08c379a000000000000000000000000000000000000000000000000000000000815260040161133f90611ffb565b60405180910390fd5b565b60606000600283600261135d919061201b565b6113679190611ad6565b67ffffffffffffffff8111156113805761137f612075565b5b6040519080825280601f01601f1916602001820160405280156113b25781602001600182028036833780820191505090505b5090507f3000000000000000000000000000000000000000000000000000000000000000816000815181106113ea576113e96120a4565b5b60200101907effffffffffffffffffffffffffffffffffffffffffffffffffffffffffffff1916908160001a9053507f78000000000000000000000000000000000000000000000000000000000000008160018151811061144e5761144d6120a4565b5b60200101907effffffffffffffffffffffffffffffffffffffffffffffffffffffffffffff1916908160001a9053506000600184600261148e919061201b565b6114989190611ad6565b90505b6001811115611538577f3031323334353637383961626364656600000000000000000000000000000000600f8616601081106114da576114d96120a4565b5b1a60f81b8282815181106114f1576114f06120a4565b5b60200101907effffffffffffffffffffffffffffffffffffffffffffffffffffffffffffff1916908160001a905350600485901c945080611531906120d3565b905061149b565b506000841461157c576040517f08c379a000000000000000000000000000000000000000000000000000000000815260040161157390612148565b60405180910390fd5b8091505092915050565b600080fd5b60007fffffffff0000000000000000000000000000000000000000000000000000000082169050919050565b6115c08161158b565b81146115cb57600080fd5b50565b6000813590506115dd816115b7565b92915050565b6000602082840312156115f9576115f8611586565b5b6000611607848285016115ce565b91505092915050565b60008115159050919050565b61162581611610565b82525050565b6000602082019050611640600083018461161c565b92915050565b600073ffffffffffffffffffffffffffffffffffffffff82169050919050565b600061167182611646565b9050919050565b61168181611666565b811461168c57600080fd5b50565b60008135905061169e81611678565b92915050565b6000819050919050565b6116b7816116a4565b81146116c257600080fd5b50565b6000813590506116d4816116ae565b92915050565b600080604083850312156116f1576116f0611586565b5b60006116ff8582860161168f565b9250506020611710858286016116c5565b9150509250929050565b6000819050919050565b61172d8161171a565b811461173857600080fd5b50565b60008135905061174a81611724565b92915050565b60006020828403121561176657611765611586565b5b60006117748482850161173b565b91505092915050565b6117868161171a565b82525050565b60006020820190506117a1600083018461177d565b92915050565b600080604083850312156117be576117bd611586565b5b60006117cc8582860161173b565b92505060206117dd8582860161168f565b9150509250929050565b600080600060608486031215611800576117ff611586565b5b600061180e8682870161168f565b935050602061181f868287016116c5565b9250506040611830868287016116c5565b9150509250925092565b61184381611666565b82525050565b600060208201905061185e600083018461183a565b92915050565b61186d816116a4565b82525050565b60006020820190506118886000830184611864565b92915050565b6000602082840312156118a4576118a3611586565b5b60006118b28482850161168f565b91505092915050565b60006040820190506118d06000830185611864565b6118dd602083018461183a565b9392505050565b600080600080608085870312156118fe576118fd611586565b5b600061190c8782880161168f565b945050602061191d878288016116c5565b935050604061192e878288016116c5565b925050606061193f8782880161168f565b91505092959194509250565b6000606082019050611960600083018661183a565b61196d6020830185611864565b61197a6040830184611864565b949350505050565b600082825260208201905092915050565b7f416363657373436f6e74726f6c3a2063616e206f6e6c792072656e6f756e636560008201527f20726f6c657320666f722073656c660000000000000000000000000000000000602082015250565b60006119ef602f83611982565b91506119fa82611993565b604082019050919050565b60006020820190508181036000830152611a1e816119e2565b9050919050565b6000604082019050611a3a600083018561183a565b611a476020830184611864565b9392505050565b611a5781611610565b8114611a6257600080fd5b50565b600081519050611a7481611a4e565b92915050565b600060208284031215611a9057611a8f611586565b5b6000611a9e84828501611a65565b91505092915050565b7f4e487b7100000000000000000000000000000000000000000000000000000000600052601160045260246000fd5b6000611ae1826116a4565b9150611aec836116a4565b9250827fffffffffffffffffffffffffffffffffffffffffffffffffffffffffffffffff03821115611b2157611b20611aa7565b5b828201905092915050565b600060c082019050611b41600083018961183a565b611b4e602083018861183a565b611b5b6040830187611864565b611b686060830186611864565b611b756080830185611864565b611b8260a0830184611864565b979650505050505050565b6000604082019050611ba26000830185611864565b611baf6020830184611864565b9392505050565b7f42616c616e636520696e73756666696369656e7420746f207472616e73666572600082015250565b6000611bec602083611982565b9150611bf782611bb6565b602082019050919050565b60006020820190508181036000830152611c1b81611bdf565b9050919050565b6000606082019050611c37600083018661183a565b611c44602083018561183a565b611c516040830184611864565b949350505050565b6000611c64826116a4565b9150611c6f836116a4565b925082821015611c8257611c81611aa7565b5b828203905092915050565b7f4f776e61626c653a206e6577206f776e657220697320746865207a65726f206160008201527f6464726573730000000000000000000000000000000000000000000000000000602082015250565b6000611ce9602683611982565b9150611cf482611c8d565b604082019050919050565b60006020820190508181036000830152611d1881611cdc565b9050919050565b7f5061757361626c653a2070617573656400000000000000000000000000000000600082015250565b6000611d55601083611982565b9150611d6082611d1f565b602082019050919050565b60006020820190508181036000830152611d8481611d48565b9050919050565b7f4f776e61626c653a2063616c6c6572206973206e6f7420746865206f776e6572600082015250565b6000611dc1602083611982565b9150611dcc82611d8b565b602082019050919050565b60006020820190508181036000830152611df081611db4565b9050919050565b600081905092915050565b7f416363657373436f6e74726f6c3a206163636f756e7420000000000000000000600082015250565b6000611e38601783611df7565b9150611e4382611e02565b601782019050919050565b600081519050919050565b60005b83811015611e77578082015181840152602081019050611e5c565b83811115611e86576000848401525b50505050565b6000611e9782611e4e565b611ea18185611df7565b9350611eb1818560208601611e59565b80840191505092915050565b7f206973206d697373696e6720726f6c6520000000000000000000000000000000600082015250565b6000611ef3601183611df7565b9150611efe82611ebd565b601182019050919050565b6000611f1482611e2b565b9150611f208285611e8c565b9150611f2b82611ee6565b9150611f378284611e8c565b91508190509392505050565b6000601f19601f8301169050919050565b6000611f5f82611e4e565b611f698185611982565b9350611f79818560208601611e59565b611f8281611f43565b840191505092915050565b60006020820190508181036000830152611fa78184611f54565b905092915050565b7f5061757361626c653a206e6f7420706175736564000000000000000000000000600082015250565b6000611fe5601483611982565b9150611ff082611faf565b602082019050919050565b6000602082019050818103600083015261201481611fd8565b9050919050565b6000612026826116a4565b9150612031836116a4565b9250817fffffffffffffffffffffffffffffffffffffffffffffffffffffffffffffffff048311821515161561206a57612069611aa7565b5b828202905092915050565b7f4e487b7100000000000000000000000000000000000000000000000000000000600052604160045260246000fd5b7f4e487b7100000000000000000000000000000000000000000000000000000000600052603260045260246000fd5b60006120de826116a4565b9150600082036120f1576120f0611aa7565b5b600182039050919050565b7f537472696e67733a20686578206c656e67746820696e73756666696369656e74600082015250565b6000612132602083611982565b915061213d826120fc565b602082019050919050565b6000602082019050818103600083015261216181612125565b905091905056fea2646970667358221220ea2e2d1827c88d73f010abf6e0547190cc4826cb8ffc70721b844f5ee742fb4d64736f6c634300080f0033",
  "linkReferences": {},
  "deployedLinkReferences": {}
}