{
  "contractName": "Bridge",
  "abi": [
    {
      "inputs": [],
      "stateMutability": "nonpayable",
      "type": "constructor"
    },
    {
      "anonymous": false,
      "inputs": [
        {
          "indexed": false,
          "internalType": "address",
          "name": "token",
          "type": "address"
        },
        {
          "indexed": false,
          "internalType": "uint256",
          "name": "amount",
          "type": "uint256"
        },
        {
          "indexed": false,
          "internalType": "uint256",
          "name": "time",
          "type": "uint256"
        }
      ],
      "name": "AddedNewToken",
      "type": "event"
    },
    {
      "anonymous": false,
      "inputs": [
        {
          "indexed": false,
          "internalType": "address",
          "name": "token",
          "type": "address"
        },
        {
          "indexed": false,
          "internalType": "uint256",
          "name": "amount",
          "type": "uint256"
        },
        {
          "indexed": false,
          "internalType": "uint256",
          "name": "timestamp",
          "type": "uint256"
        }
      ],
      "name": "AddedTokens",
      "type": "event"
    },
    {
      "anonymous": false,
      "inputs": [
        {
          "indexed": true,
          "internalType": "address",
          "name": "previousOwner",
          "type": "address"
        },
        {
          "indexed": true,
          "internalType": "address",
          "name": "newOwner",
          "type": "address"
        }
      ],
      "name": "OwnershipTransferred",
      "type": "event"
    },
    {
      "anonymous": false,
      "inputs": [
        {
          "indexed": false,
          "internalType": "uint256",
          "name": "time",
          "type": "uint256"
        },
        {
          "indexed": false,
          "internalType": "uint256",
          "name": "chainId",
          "type": "uint256"
        }
      ],
      "name": "Pause",
      "type": "event"
    },
    {
      "anonymous": false,
      "inputs": [
        {
          "indexed": false,
          "internalType": "address",
          "name": "account",
          "type": "address"
        }
      ],
      "name": "Paused",
      "type": "event"
    },
    {
      "anonymous": false,
      "inputs": [
        {
          "indexed": true,
          "internalType": "bytes32",
          "name": "role",
          "type": "bytes32"
        },
        {
          "indexed": true,
          "internalType": "bytes32",
          "name": "previousAdminRole",
          "type": "bytes32"
        },
        {
          "indexed": true,
          "internalType": "bytes32",
          "name": "newAdminRole",
          "type": "bytes32"
        }
      ],
      "name": "RoleAdminChanged",
      "type": "event"
    },
    {
      "anonymous": false,
      "inputs": [
        {
          "indexed": true,
          "internalType": "bytes32",
          "name": "role",
          "type": "bytes32"
        },
        {
          "indexed": true,
          "internalType": "address",
          "name": "account",
          "type": "address"
        },
        {
          "indexed": true,
          "internalType": "address",
          "name": "sender",
          "type": "address"
        }
      ],
      "name": "RoleGranted",
      "type": "event"
    },
    {
      "anonymous": false,
      "inputs": [
        {
          "indexed": true,
          "internalType": "bytes32",
          "name": "role",
          "type": "bytes32"
        },
        {
          "indexed": true,
          "internalType": "address",
          "name": "account",
          "type": "address"
        },
        {
          "indexed": true,
          "internalType": "address",
          "name": "sender",
          "type": "address"
        }
      ],
      "name": "RoleRevoked",
      "type": "event"
    },
    {
      "anonymous": false,
      "inputs": [
        {
          "indexed": false,
          "internalType": "address",
          "name": "account",
          "type": "address"
        }
      ],
      "name": "Unpaused",
      "type": "event"
    },
    {
      "anonymous": false,
      "inputs": [
        {
          "indexed": false,
          "internalType": "address",
          "name": "token",
          "type": "address"
        },
        {
          "indexed": false,
          "internalType": "address",
          "name": "user",
          "type": "address"
        },
        {
          "indexed": false,
          "internalType": "uint256",
          "name": "amount",
          "type": "uint256"
        },
        {
          "indexed": false,
          "internalType": "uint256",
          "name": "timestamp",
          "type": "uint256"
        },
        {
          "indexed": false,
          "internalType": "uint256",
          "name": "chainFrom",
          "type": "uint256"
        },
        {
          "indexed": false,
          "internalType": "uint256",
          "name": "chainTo",
          "type": "uint256"
        }
      ],
      "name": "tranferToAnotherChain",
      "type": "event"
    },
    {
      "anonymous": false,
      "inputs": [
        {
          "indexed": false,
          "internalType": "address",
          "name": "token",
          "type": "address"
        },
        {
          "indexed": false,
          "internalType": "address",
          "name": "user",
          "type": "address"
        },
        {
          "indexed": false,
          "internalType": "uint256",
          "name": "amount",
          "type": "uint256"
        },
        {
          "indexed": false,
          "internalType": "uint256",
          "name": "time",
          "type": "uint256"
        },
        {
          "indexed": false,
          "internalType": "uint256",
          "name": "chainFrom",
          "type": "uint256"
        },
        {
          "indexed": false,
          "internalType": "uint256",
          "name": "chainTo",
          "type": "uint256"
        }
      ],
      "name": "transferTothatChain",
      "type": "event"
    },
    {
      "inputs": [],
      "name": "ADMIN_ROLE",
      "outputs": [
        {
          "internalType": "bytes32",
          "name": "",
          "type": "bytes32"
        }
      ],
      "stateMutability": "view",
      "type": "function",
      "constant": true
    },
    {
      "inputs": [],
      "name": "BRIDGE_ROLE",
      "outputs": [
        {
          "internalType": "bytes32",
          "name": "",
          "type": "bytes32"
        }
      ],
      "stateMutability": "view",
      "type": "function",
      "constant": true
    },
    {
      "inputs": [],
      "name": "DEFAULT_ADMIN_ROLE",
      "outputs": [
        {
          "internalType": "bytes32",
          "name": "",
          "type": "bytes32"
        }
      ],
      "stateMutability": "view",
      "type": "function",
      "constant": true
    },
    {
      "inputs": [
        {
          "internalType": "address",
          "name": "",
          "type": "address"
        }
      ],
      "name": "balanceOfToken",
      "outputs": [
        {
          "internalType": "uint256",
          "name": "balance",
          "type": "uint256"
        },
        {
          "internalType": "address",
          "name": "Token",
          "type": "address"
        }
      ],
      "stateMutability": "view",
      "type": "function",
      "constant": true
    },
    {
      "inputs": [],
      "name": "chainId",
      "outputs": [
        {
          "internalType": "uint256",
          "name": "",
          "type": "uint256"
        }
      ],
      "stateMutability": "view",
      "type": "function",
      "constant": true
    },
    {
      "inputs": [
        {
          "internalType": "bytes32",
          "name": "role",
          "type": "bytes32"
        }
      ],
      "name": "getRoleAdmin",
      "outputs": [
        {
          "internalType": "bytes32",
          "name": "",
          "type": "bytes32"
        }
      ],
      "stateMutability": "view",
      "type": "function",
      "constant": true
    },
    {
      "inputs": [
        {
          "internalType": "bytes32",
          "name": "role",
          "type": "bytes32"
        },
        {
          "internalType": "address",
          "name": "account",
          "type": "address"
        }
      ],
      "name": "grantRole",
      "outputs": [],
      "stateMutability": "nonpayable",
      "type": "function"
    },
    {
      "inputs": [
        {
          "internalType": "bytes32",
          "name": "role",
          "type": "bytes32"
        },
        {
          "internalType": "address",
          "name": "account",
          "type": "address"
        }
      ],
      "name": "hasRole",
      "outputs": [
        {
          "internalType": "bool",
          "name": "",
          "type": "bool"
        }
      ],
      "stateMutability": "view",
      "type": "function",
      "constant": true
    },
    {
      "inputs": [],
      "name": "owner",
      "outputs": [
        {
          "internalType": "address",
          "name": "",
          "type": "address"
        }
      ],
      "stateMutability": "view",
      "type": "function",
      "constant": true
    },
    {
      "inputs": [],
      "name": "paused",
      "outputs": [
        {
          "internalType": "bool",
          "name": "",
          "type": "bool"
        }
      ],
      "stateMutability": "view",
      "type": "function",
      "constant": true
    },
    {
      "inputs": [],
      "name": "renounceOwnership",
      "outputs": [],
      "stateMutability": "nonpayable",
      "type": "function"
    },
    {
      "inputs": [
        {
          "internalType": "bytes32",
          "name": "role",
          "type": "bytes32"
        },
        {
          "internalType": "address",
          "name": "account",
          "type": "address"
        }
      ],
      "name": "renounceRole",
      "outputs": [],
      "stateMutability": "nonpayable",
      "type": "function"
    },
    {
      "inputs": [
        {
          "internalType": "bytes32",
          "name": "role",
          "type": "bytes32"
        },
        {
          "internalType": "address",
          "name": "account",
          "type": "address"
        }
      ],
      "name": "revokeRole",
      "outputs": [],
      "stateMutability": "nonpayable",
      "type": "function"
    },
    {
      "inputs": [
        {
          "internalType": "bytes4",
          "name": "interfaceId",
          "type": "bytes4"
        }
      ],
      "name": "supportsInterface",
      "outputs": [
        {
          "internalType": "bool",
          "name": "",
          "type": "bool"
        }
      ],
      "stateMutability": "view",
      "type": "function",
      "constant": true
    },
    {
      "inputs": [
        {
          "internalType": "address",
          "name": "newOwner",
          "type": "address"
        }
      ],
      "name": "transferOwnership",
      "outputs": [],
      "stateMutability": "nonpayable",
      "type": "function"
    },
    {
      "inputs": [],
      "name": "pause",
      "outputs": [],
      "stateMutability": "nonpayable",
      "type": "function"
    },
    {
      "inputs": [],
      "name": "unpause",
      "outputs": [],
      "stateMutability": "nonpayable",
      "type": "function"
    },
    {
      "inputs": [
        {
          "internalType": "address",
          "name": "_token",
          "type": "address"
        },
        {
          "internalType": "uint256",
          "name": "_amount",
          "type": "uint256"
        }
      ],
      "name": "addNewToken",
      "outputs": [],
      "stateMutability": "nonpayable",
      "type": "function"
    },
    {
      "inputs": [
        {
          "internalType": "address",
          "name": "_token",
          "type": "address"
        },
        {
          "internalType": "uint256",
          "name": "_amount",
          "type": "uint256"
        },
        {
          "internalType": "uint256",
          "name": "chainFrom",
          "type": "uint256"
        },
        {
          "internalType": "address",
          "name": "to",
          "type": "address"
        }
      ],
      "name": "sendFromTo",
      "outputs": [],
      "stateMutability": "nonpayable",
      "type": "function"
    },
    {
      "inputs": [
        {
          "internalType": "address",
          "name": "_token",
          "type": "address"
        },
        {
          "internalType": "uint256",
          "name": "_amount",
          "type": "uint256"
        },
        {
          "internalType": "uint256",
          "name": "chainTo",
          "type": "uint256"
        }
      ],
      "name": "sendToFrom",
      "outputs": [
        {
          "internalType": "bool",
          "name": "",
          "type": "bool"
        }
      ],
      "stateMutability": "nonpayable",
      "type": "function"
    },
    {
      "inputs": [
        {
          "internalType": "address",
          "name": "_token",
          "type": "address"
        },
        {
          "internalType": "uint256",
          "name": "amount",
          "type": "uint256"
        }
      ],
      "name": "addTokens",
      "outputs": [],
      "stateMutability": "nonpayable",
      "type": "function"
    },
    {
      "inputs": [
        {
          "internalType": "address",
          "name": "token",
          "type": "address"
        },
        {
          "internalType": "uint256",
          "name": "amount",
          "type": "uint256"
        }
      ],
      "name": "withdraw",
      "outputs": [],
      "stateMutability": "nonpayable",
      "type": "function"
    }
  ],
  "bytecode": "0x60806040523480156200001157600080fd5b506200001d33620000a4565b6001805460ff60a01b19169055466002556200003933620000a4565b620000657f52ba824bfabc2bcfcdf7f0edbb486ebb05e1836c90e78047efeb949990f72e5f33620000f6565b62000072600033620000f6565b6200009e7fa49807205ce4d355092ef5a8a18f56e8913cf4a201fbe287825b095693c2177533620000f6565b62000197565b600180546001600160a01b038381166001600160a01b0319831681179093556040519116919082907f8be0079c531659141344cd1fd0a4f28419497f9722a3daafe3b4186f6b6457e090600090a35050565b6000828152602081815260408083206001600160a01b038516845290915290205460ff1662000193576000828152602081815260408083206001600160a01b03851684529091529020805460ff19166001179055620001523390565b6001600160a01b0316816001600160a01b0316837f2f8788117e7eff1d82e926ec794901d17c78024a50270940304540a733656f0d60405160405180910390a45b5050565b6114c780620001a76000396000f3fe608060405234801561001057600080fd5b50600436106101825760003560e01c80638456cb59116100d8578063b5bfddea1161008c578063d547741f11610066578063d547741f1461037c578063f2fde38b1461038f578063f3fef3a3146103a257600080fd5b8063b5bfddea146102f5578063b99152d01461031c578063c42c7b3d1461036957600080fd5b806391d14854116100bd57806391d14854146102ad5780639a8a0592146102e4578063a217fddf146102ed57600080fd5b80638456cb591461028a5780638da5cb5b1461029257600080fd5b80633f43b51c1161013a5780636039fbdb116101145780636039fbdb14610248578063715018a61461025b57806375b238fc1461026357600080fd5b80633f43b51c1461021b5780633f4ba83a1461022e5780635c975abb1461023657600080fd5b8063248a9ca31161016b578063248a9ca3146101c45780632f2ff15d146101f557806336568abe1461020857600080fd5b806301ffc9a71461018757806308cca7ea146101af575b600080fd5b61019a610195366004611183565b6103b5565b60405190151581526020015b60405180910390f35b6101c26101bd3660046111e1565b61044e565b005b6101e76101d236600461120b565b60009081526020819052604090206001015490565b6040519081526020016101a6565b6101c2610203366004611224565b6104e0565b6101c2610216366004611224565b61050a565b61019a610229366004611250565b61059b565b6101c26106d9565b600154600160a01b900460ff1661019a565b6101c26102563660046111e1565b61071e565b6101c26107cc565b6101e77fa49807205ce4d355092ef5a8a18f56e8913cf4a201fbe287825b095693c2177581565b6101c26107de565b6001546040516001600160a01b0390911681526020016101a6565b61019a6102bb366004611224565b6000918252602082815260408084206001600160a01b0393909316845291905290205460ff1690565b6101e760025481565b6101e7600081565b6101e77f52ba824bfabc2bcfcdf7f0edbb486ebb05e1836c90e78047efeb949990f72e5f81565b61034c61032a366004611283565b600360205260009081526040902080546001909101546001600160a01b031682565b604080519283526001600160a01b039091166020830152016101a6565b6101c261037736600461129e565b610861565b6101c261038a366004611224565b610a21565b6101c261039d366004611283565b610a46565b6101c26103b03660046111e1565b610ad6565b60007fffffffff0000000000000000000000000000000000000000000000000000000082167f7965db0b00000000000000000000000000000000000000000000000000000000148061044857507f01ffc9a7000000000000000000000000000000000000000000000000000000007fffffffff000000000000000000000000000000000000000000000000000000008316145b92915050565b6001600160a01b0382166000818152600360209081526040918290206001810180547fffffffffffffffffffffffff0000000000000000000000000000000000000000168517905584815582519384529083018490524291830191909152907f79798a5f5c3c7fa54a25ad685d912914645dc006852a962f9102bcde4b7356e3906060015b60405180910390a1505050565b6000828152602081905260409020600101546104fb81610b6e565b6105058383610b78565b505050565b6001600160a01b038116331461058d5760405162461bcd60e51b815260206004820152602f60248201527f416363657373436f6e74726f6c3a2063616e206f6e6c792072656e6f756e636560448201527f20726f6c657320666f722073656c66000000000000000000000000000000000060648201526084015b60405180910390fd5b6105978282610c16565b5050565b60006105a5610c95565b6001600160a01b038416600090815260036020526040902080548411156105cb57600080fd5b60018101546040517fa9059cbb000000000000000000000000000000000000000000000000000000008152306004820152602481018690526001600160a01b039091169063a9059cbb906044016020604051808303816000875af1158015610637573d6000803e3d6000fd5b505050506040513d601f19601f8201168201806040525081019061065b91906112e4565b50805461066990859061131c565b81556001810154600254604080516001600160a01b0390931683523360208401528201869052426060830152608082015260a081018490527fe6b87b29277d9eebde8c8346a9ec4d8ab31555f7c28ec3cb2a27df262af438ad9060c00160405180910390a1506001949350505050565b3360009081527f7dcd276b72586271b4623598c6b3ecb5f3594881d1da5ce0d28e8f8adbf67787602052604090205460ff1661071457600080fd5b61071c610cef565b565b3360009081527f7d7ffb7a348e1c6a02869081a26547b49160dd3df72d1d75a570eb9b698292ec602052604090205460ff1661075957600080fd5b6001600160a01b0382166000908152600360205260409020805461077e90839061131c565b81556001810154604080516001600160a01b0390921682526020820184905242908201527f5e418e57faceed9abcebeb838879291d58af370932340175f34c7daaeadb804a906060016104d3565b6107d4610d5a565b61071c6000610db4565b3360009081527f7dcd276b72586271b4623598c6b3ecb5f3594881d1da5ce0d28e8f8adbf67787602052604090205460ff1661081957600080fd5b610821610e1e565b6002546040805142815260208101929092527f5696866c9374d2e3c292741d2edb9364a134bfb1cb1ea8877622b84c43f5806f91015b60405180910390a1565b610869610c95565b3360009081527f7dcd276b72586271b4623598c6b3ecb5f3594881d1da5ce0d28e8f8adbf67787602052604090205460ff166108a457600080fd5b6001600160a01b0384166000908152600360205260409020805484111561090d5760405162461bcd60e51b815260206004820181905260248201527f42616c616e636520696e73756666696369656e7420746f207472616e736665726044820152606401610584565b60018101546040517f23b872dd0000000000000000000000000000000000000000000000000000000081523060048201526001600160a01b03848116602483015260448201879052909116906323b872dd906064016020604051808303816000875af1158015610981573d6000803e3d6000fd5b505050506040513d601f19601f820116820180604052508101906109a591906112e4565b5080546109b3908590611334565b81556001810154600254604080516001600160a01b039384168152928516602084015282018690524260608301526080820185905260a08201527f93691c1191cb38e26814c0e565b2ba47310aefdf9f623021bddd1cc6e62e5b349060c00160405180910390a15050505050565b600082815260208190526040902060010154610a3c81610b6e565b6105058383610c16565b610a4e610d5a565b6001600160a01b038116610aca5760405162461bcd60e51b815260206004820152602660248201527f4f776e61626c653a206e6577206f776e657220697320746865207a65726f206160448201527f64647265737300000000000000000000000000000000000000000000000000006064820152608401610584565b610ad381610db4565b50565b610ade610d5a565b6040517f23b872dd000000000000000000000000000000000000000000000000000000008152306004820152336024820152604481018290526001600160a01b038316906323b872dd906064016020604051808303816000875af1158015610b4a573d6000803e3d6000fd5b505050506040513d601f19601f8201168201806040525081019061050591906112e4565b610ad38133610e7c565b6000828152602081815260408083206001600160a01b038516845290915290205460ff16610597576000828152602081815260408083206001600160a01b03851684529091529020805460ff19166001179055610bd23390565b6001600160a01b0316816001600160a01b0316837f2f8788117e7eff1d82e926ec794901d17c78024a50270940304540a733656f0d60405160405180910390a45050565b6000828152602081815260408083206001600160a01b038516845290915290205460ff1615610597576000828152602081815260408083206001600160a01b0385168085529252808320805460ff1916905551339285917ff6391f5c32d9c69d2a47ea670b442974b53935d1edc7fd64eb21e047a839171b9190a45050565b600154600160a01b900460ff161561071c5760405162461bcd60e51b815260206004820152601060248201527f5061757361626c653a20706175736564000000000000000000000000000000006044820152606401610584565b610cf7610efa565b600180547fffffffffffffffffffffff00ffffffffffffffffffffffffffffffffffffffff1690557f5db9ee0a495bf2e6ff9c91a7834c1ba4fdd244a5e8aa4e537bd38aeae4b073aa335b6040516001600160a01b039091168152602001610857565b6001546001600160a01b0316331461071c5760405162461bcd60e51b815260206004820181905260248201527f4f776e61626c653a2063616c6c6572206973206e6f7420746865206f776e65726044820152606401610584565b600180546001600160a01b038381167fffffffffffffffffffffffff0000000000000000000000000000000000000000831681179093556040519116919082907f8be0079c531659141344cd1fd0a4f28419497f9722a3daafe3b4186f6b6457e090600090a35050565b610e26610c95565b600180547fffffffffffffffffffffff00ffffffffffffffffffffffffffffffffffffffff16600160a01b1790557f62e78cea01bee320cd4e420270b5ea74000d11b0c9f74754ebdbfc544b05a258610d423390565b6000828152602081815260408083206001600160a01b038516845290915290205460ff1661059757610eb8816001600160a01b03166014610f53565b610ec3836020610f53565b604051602001610ed492919061137b565b60408051601f198184030181529082905262461bcd60e51b8252610584916004016113fc565b600154600160a01b900460ff1661071c5760405162461bcd60e51b815260206004820152601460248201527f5061757361626c653a206e6f74207061757365640000000000000000000000006044820152606401610584565b60606000610f6283600261142f565b610f6d90600261131c565b67ffffffffffffffff811115610f8557610f8561144e565b6040519080825280601f01601f191660200182016040528015610faf576020820181803683370190505b5090507f300000000000000000000000000000000000000000000000000000000000000081600081518110610fe657610fe6611464565b60200101907effffffffffffffffffffffffffffffffffffffffffffffffffffffffffffff1916908160001a9053507f78000000000000000000000000000000000000000000000000000000000000008160018151811061104957611049611464565b60200101907effffffffffffffffffffffffffffffffffffffffffffffffffffffffffffff1916908160001a905350600061108584600261142f565b61109090600161131c565b90505b600181111561112d577f303132333435363738396162636465660000000000000000000000000000000085600f16601081106110d1576110d1611464565b1a60f81b8282815181106110e7576110e7611464565b60200101907effffffffffffffffffffffffffffffffffffffffffffffffffffffffffffff1916908160001a90535060049490941c936111268161147a565b9050611093565b50831561117c5760405162461bcd60e51b815260206004820181905260248201527f537472696e67733a20686578206c656e67746820696e73756666696369656e746044820152606401610584565b9392505050565b60006020828403121561119557600080fd5b81357fffffffff000000000000000000000000000000000000000000000000000000008116811461117c57600080fd5b80356001600160a01b03811681146111dc57600080fd5b919050565b600080604083850312156111f457600080fd5b6111fd836111c5565b946020939093013593505050565b60006020828403121561121d57600080fd5b5035919050565b6000806040838503121561123757600080fd5b82359150611247602084016111c5565b90509250929050565b60008060006060848603121561126557600080fd5b61126e846111c5565b95602085013595506040909401359392505050565b60006020828403121561129557600080fd5b61117c826111c5565b600080600080608085870312156112b457600080fd5b6112bd856111c5565b935060208501359250604085013591506112d9606086016111c5565b905092959194509250565b6000602082840312156112f657600080fd5b8151801515811461117c57600080fd5b634e487b7160e01b600052601160045260246000fd5b6000821982111561132f5761132f611306565b500190565b60008282101561134657611346611306565b500390565b60005b8381101561136657818101518382015260200161134e565b83811115611375576000848401525b50505050565b7f416363657373436f6e74726f6c3a206163636f756e74200000000000000000008152600083516113b381601785016020880161134b565b7f206973206d697373696e6720726f6c652000000000000000000000000000000060179184019182015283516113f081602884016020880161134b565b01602801949350505050565b602081526000825180602084015261141b81604085016020870161134b565b601f01601f19169190910160400192915050565b600081600019048311821515161561144957611449611306565b500290565b634e487b7160e01b600052604160045260246000fd5b634e487b7160e01b600052603260045260246000fd5b60008161148957611489611306565b50600019019056fea2646970667358221220dcfea9bc4b4a51cd0ba389fa09a99919ba3c78106e5daef390a9bea4642b63a764736f6c634300080f0033",
  "immutableReferences": {},
  "source": "// SPDX-License-Identifier: MIT\npragma solidity 0.8.15;\n\nimport \"@openzeppelin/contracts/token/erc20/utils/SafeERC20.sol\";\nimport \"@openzeppelin/contracts/access/AccessControl.sol\";\nimport \"@openzeppelin/contracts/access/Ownable.sol\"; \nimport \"@openzeppelin/contracts/security/Pausable.sol\";\n\ncontract Bridge is AccessControl,Ownable,Pausable {\nusing SafeERC20 for IERC20;\nuint public chainId;\n\n\nstruct Token{\n    uint balance;\n    address Token;\n}\nmapping (address=>Token) public balanceOfToken; \nbytes32 public constant BRIDGE_ROLE = keccak256(\"BRIDGE_ROLE\");\nbytes32 public constant ADMIN_ROLE = keccak256(\"ADMIN_ROLE\");\n   \nconstructor(){\n    chainId = block.chainid;\n    _transferOwnership(msg.sender);\n    _grantRole(BRIDGE_ROLE, msg.sender);\n    _grantRole(DEFAULT_ADMIN_ROLE, msg.sender);\n    _grantRole(ADMIN_ROLE, msg.sender);\n}   \nevent transferTothatChain(address token,address user,uint amount,uint time,uint chainFrom,uint chainTo);\nevent tranferToAnotherChain(address token,address user,uint amount,uint timestamp,uint chainFrom,uint chainTo);\nevent AddedTokens(address token,uint amount,uint timestamp);\nevent AddedNewToken(address token, uint amount, uint time);\nevent Pause(uint time,uint chainId);\n\nfunction pause() public {\n    require(hasRole(BRIDGE_ROLE, msg.sender));\n    _pause();\n    emit Pause(block.timestamp,chainId);\n\n}\nfunction unpause()public {\n    require(hasRole(BRIDGE_ROLE, msg.sender));\n    _unpause();\n}\nfunction addNewToken(address _token,uint _amount)public {\n    Token storage token = balanceOfToken[_token];\n    token.Token = _token;\n    token.balance = _amount;\n    emit AddedNewToken(token.Token, token.balance, block.timestamp);\n}\n\nfunction sendFromTo(address _token,uint _amount,uint chainFrom,address to)public whenNotPaused {\n    require(hasRole(BRIDGE_ROLE, msg.sender));\n    Token storage token = balanceOfToken[_token];\n   require(token.balance >= _amount,\"Balance insufficient to transfer\");\n    IERC20(token.Token).transferFrom(address(this), to, _amount);\n    token.balance = token.balance - _amount;\n    emit transferTothatChain(token.Token, to, _amount, block.timestamp, chainFrom, chainId);\n}\n\nfunction sendToFrom(address _token,uint _amount,uint chainTo) public whenNotPaused returns(bool){\n    Token storage token = balanceOfToken[_token];\n    require(token.balance >= _amount);\n    IERC20(token.Token).transfer(address(this), _amount);\n    token.balance = token.balance + _amount;\n    emit tranferToAnotherChain(token.Token,address (msg.sender),_amount,block.timestamp,chainId,chainTo);\n    return true; \n}\nfunction addTokens(address _token,uint amount)public {\n    require(hasRole(ADMIN_ROLE, msg.sender));\n    Token storage token = balanceOfToken[_token];\n    token.balance = token.balance + amount;\n    emit AddedTokens(token.Token, amount, block.timestamp);\n}\nfunction withdraw(address token,uint amount)public onlyOwner{\n    IERC20(token).transferFrom(address(this),address(msg.sender), amount);\n}\n\n\n}\n",
  "sourcePath": "F:\\rustListener\\contracts\\Bridge.sol",
  "compiler": {
    "name": "solc",
    "version": "0.8.15+commit.e14f2714.Emscripten.clang"
  },
  "schemaVersion": "3.4.6",
  "updatedAt": "2022-07-25T12:19:39.067Z",
  "networkType": "ethereum",
  "devdoc": {
    "kind": "dev",
    "methods": {
      "getRoleAdmin(bytes32)": {
        "details": "Returns the admin role that controls `role`. See {grantRole} and {revokeRole}. To change a role's admin, use {_setRoleAdmin}."
      },
      "grantRole(bytes32,address)": {
        "details": "Grants `role` to `account`. If `account` had not been already granted `role`, emits a {RoleGranted} event. Requirements: - the caller must have ``role``'s admin role. May emit a {RoleGranted} event."
      },
      "hasRole(bytes32,address)": {
        "details": "Returns `true` if `account` has been granted `role`."
      },
      "owner()": {
        "details": "Returns the address of the current owner."
      },
      "paused()": {
        "details": "Returns true if the contract is paused, and false otherwise."
      },
      "renounceOwnership()": {
        "details": "Leaves the contract without owner. It will not be possible to call `onlyOwner` functions anymore. Can only be called by the current owner. NOTE: Renouncing ownership will leave the contract without an owner, thereby removing any functionality that is only available to the owner."
      },
      "renounceRole(bytes32,address)": {
        "details": "Revokes `role` from the calling account. Roles are often managed via {grantRole} and {revokeRole}: this function's purpose is to provide a mechanism for accounts to lose their privileges if they are compromised (such as when a trusted device is misplaced). If the calling account had been revoked `role`, emits a {RoleRevoked} event. Requirements: - the caller must be `account`. May emit a {RoleRevoked} event."
      },
      "revokeRole(bytes32,address)": {
        "details": "Revokes `role` from `account`. If `account` had been granted `role`, emits a {RoleRevoked} event. Requirements: - the caller must have ``role``'s admin role. May emit a {RoleRevoked} event."
      },
      "supportsInterface(bytes4)": {
        "details": "See {IERC165-supportsInterface}."
      },
      "transferOwnership(address)": {
        "details": "Transfers ownership of the contract to a new account (`newOwner`). Can only be called by the current owner."
      }
    },
    "version": 1
  },
  "userdoc": {
    "kind": "user",
    "methods": {},
    "version": 1
  }
}